{
    "contractName": "Forgepad",
    "abi": [
        {
            "inputs": [
                {
                    "internalType": "address",
                    "name": "_dataFeedAddress",
                    "type": "address"
                },
                {
                    "internalType": "address",
                    "name": "_liquidityManagerAddress",
                    "type": "address"
                },
                {
                    "internalType": "address",
                    "name": "_feeAddress",
                    "type": "address"
                },
                {
                    "internalType": "address",
                    "name": "_distributorAddress",
                    "type": "address"
                },
                {
                    "internalType": "uint256",
                    "name": "_targetMarketCap",
                    "type": "uint256"
                },
                {
                    "internalType": "uint256",
                    "name": "_totalSupply",
                    "type": "uint256"
                }
            ],
            "stateMutability": "nonpayable",
            "type": "constructor"
        },
        {
            "inputs": [],
            "name": "EnforcedPause",
            "type": "error"
        },
        {
            "inputs": [],
            "name": "ExpectedPause",
            "type": "error"
        },
        {
            "inputs": [
                {
                    "internalType": "address",
                    "name": "owner",
                    "type": "address"
                }
            ],
            "name": "OwnableInvalidOwner",
            "type": "error"
        },
        {
            "inputs": [
                {
                    "internalType": "address",
                    "name": "account",
                    "type": "address"
                }
            ],
            "name": "OwnableUnauthorizedAccount",
            "type": "error"
        },
        {
            "inputs": [],
            "name": "ReentrancyGuardReentrantCall",
            "type": "error"
        },
        {
            "anonymous": false,
            "inputs": [
                {
                    "indexed": false,
                    "internalType": "address",
                    "name": "user",
                    "type": "address"
                },
                {
                    "indexed": false,
                    "internalType": "address",
                    "name": "token",
                    "type": "address"
                },
                {
                    "indexed": false,
                    "internalType": "uint256",
                    "name": "ethAmount",
                    "type": "uint256"
                },
                {
                    "indexed": false,
                    "internalType": "uint256",
                    "name": "tokenAmount",
                    "type": "uint256"
                },
                {
                    "indexed": false,
                    "internalType": "uint256",
                    "name": "tokenPrice",
                    "type": "uint256"
                },
                {
                    "indexed": false,
                    "internalType": "uint256",
                    "name": "ethPriceUSD",
                    "type": "uint256"
                },
                {
                    "indexed": false,
                    "internalType": "uint256",
                    "name": "marketCap",
                    "type": "uint256"
                },
                {
                    "indexed": false,
                    "internalType": "uint256",
                    "name": "date",
                    "type": "uint256"
                }
            ],
            "name": "BuyTokens",
            "type": "event"
        },
        {
            "anonymous": false,
            "inputs": [
                {
                    "indexed": false,
                    "internalType": "address",
                    "name": "token",
                    "type": "address"
                },
                {
                    "indexed": false,
                    "internalType": "uint256",
                    "name": "ethAmount",
                    "type": "uint256"
                },
                {
                    "indexed": false,
                    "internalType": "uint256",
                    "name": "tokenAmount",
                    "type": "uint256"
                },
                {
                    "indexed": false,
                    "internalType": "uint256",
                    "name": "totalSupply",
                    "type": "uint256"
                }
            ],
            "name": "LiquidityAdded",
            "type": "event"
        },
        {
            "anonymous": false,
            "inputs": [
                {
                    "indexed": true,
                    "internalType": "address",
                    "name": "from",
                    "type": "address"
                },
                {
                    "indexed": true,
                    "internalType": "address",
                    "name": "oldToken",
                    "type": "address"
                },
                {
                    "indexed": true,
                    "internalType": "address",
                    "name": "newToken",
                    "type": "address"
                }
            ],
            "name": "Migrated",
            "type": "event"
        },
        {
            "anonymous": false,
            "inputs": [
                {
                    "indexed": true,
                    "internalType": "address",
                    "name": "previousOwner",
                    "type": "address"
                },
                {
                    "indexed": true,
                    "internalType": "address",
                    "name": "newOwner",
                    "type": "address"
                }
            ],
            "name": "OwnershipTransferred",
            "type": "event"
        },
        {
            "anonymous": false,
            "inputs": [
                {
                    "indexed": false,
                    "internalType": "address",
                    "name": "account",
                    "type": "address"
                }
            ],
            "name": "Paused",
            "type": "event"
        },
        {
            "anonymous": false,
            "inputs": [
                {
                    "indexed": false,
                    "internalType": "address",
                    "name": "user",
                    "type": "address"
                },
                {
                    "indexed": false,
                    "internalType": "address",
                    "name": "token",
                    "type": "address"
                },
                {
                    "indexed": false,
                    "internalType": "uint256",
                    "name": "ethAmount",
                    "type": "uint256"
                },
                {
                    "indexed": false,
                    "internalType": "uint256",
                    "name": "tokenAmount",
                    "type": "uint256"
                },
                {
                    "indexed": false,
                    "internalType": "uint256",
                    "name": "tokenPrice",
                    "type": "uint256"
                },
                {
                    "indexed": false,
                    "internalType": "uint256",
                    "name": "ethPriceUSD",
                    "type": "uint256"
                },
                {
                    "indexed": false,
                    "internalType": "uint256",
                    "name": "marketCap",
                    "type": "uint256"
                },
                {
                    "indexed": false,
                    "internalType": "uint256",
                    "name": "date",
                    "type": "uint256"
                }
            ],
            "name": "SellTokens",
            "type": "event"
        },
        {
            "anonymous": false,
            "inputs": [
                {
                    "indexed": false,
                    "internalType": "address",
                    "name": "token",
                    "type": "address"
                },
                {
                    "indexed": false,
                    "internalType": "uint256",
                    "name": "tokenPrice",
                    "type": "uint256"
                },
                {
                    "indexed": false,
                    "internalType": "uint256",
                    "name": "ethPriceUSD",
                    "type": "uint256"
                },
                {
                    "indexed": false,
                    "internalType": "uint32",
                    "name": "sig",
                    "type": "uint32"
                },
                {
                    "indexed": false,
                    "internalType": "uint256",
                    "name": "date",
                    "type": "uint256"
                }
            ],
            "name": "TokenCreated",
            "type": "event"
        },
        {
            "anonymous": false,
            "inputs": [
                {
                    "indexed": false,
                    "internalType": "address",
                    "name": "token",
                    "type": "address"
                },
                {
                    "indexed": false,
                    "internalType": "uint256",
                    "name": "date",
                    "type": "uint256"
                }
            ],
            "name": "TokenLaunched",
            "type": "event"
        },
        {
            "anonymous": false,
            "inputs": [
                {
                    "indexed": false,
                    "internalType": "address",
                    "name": "account",
                    "type": "address"
                }
            ],
            "name": "Unpaused",
            "type": "event"
        },
        {
            "inputs": [],
            "name": "CREATE_TOKEN_FEE_AMOUNT",
            "outputs": [
                {
                    "internalType": "uint256",
                    "name": "",
                    "type": "uint256"
                }
            ],
            "stateMutability": "view",
            "type": "function"
        },
        {
            "inputs": [],
            "name": "MAX_BUY_PERCENT",
            "outputs": [
                {
                    "internalType": "uint256",
                    "name": "",
                    "type": "uint256"
                }
            ],
            "stateMutability": "view",
            "type": "function"
        },
        {
            "inputs": [],
            "name": "MAX_PRICE_IMPACT",
            "outputs": [
                {
                    "internalType": "uint256",
                    "name": "",
                    "type": "uint256"
                }
            ],
            "stateMutability": "view",
            "type": "function"
        },
        {
            "inputs": [],
            "name": "MAX_SELL_PERCENT",
            "outputs": [
                {
                    "internalType": "uint256",
                    "name": "",
                    "type": "uint256"
                }
            ],
            "stateMutability": "view",
            "type": "function"
        },
        {
            "inputs": [],
            "name": "MIN_LIQUIDITY",
            "outputs": [
                {
                    "internalType": "uint256",
                    "name": "",
                    "type": "uint256"
                }
            ],
            "stateMutability": "view",
            "type": "function"
        },
        {
            "inputs": [],
            "name": "PLATFORM_BUY_FEE_PERCENT",
            "outputs": [
                {
                    "internalType": "uint256",
                    "name": "",
                    "type": "uint256"
                }
            ],
            "stateMutability": "view",
            "type": "function"
        },
        {
            "inputs": [],
            "name": "PLATFORM_SELL_FEE_PERCENT",
            "outputs": [
                {
                    "internalType": "uint256",
                    "name": "",
                    "type": "uint256"
                }
            ],
            "stateMutability": "view",
            "type": "function"
        },
        {
            "inputs": [],
            "name": "TARGET_MARKET_CAP",
            "outputs": [
                {
                    "internalType": "uint256",
                    "name": "",
                    "type": "uint256"
                }
            ],
            "stateMutability": "view",
            "type": "function"
        },
        {
            "inputs": [],
            "name": "TOKEN_OWNER_FEE_PERCENT",
            "outputs": [
                {
                    "internalType": "uint256",
                    "name": "",
                    "type": "uint256"
                }
            ],
            "stateMutability": "view",
            "type": "function"
        },
        {
            "inputs": [],
            "name": "TOTAL_SUPPLY",
            "outputs": [
                {
                    "internalType": "uint256",
                    "name": "",
                    "type": "uint256"
                }
            ],
            "stateMutability": "view",
            "type": "function"
        },
        {
            "inputs": [],
            "name": "burnAddress",
            "outputs": [
                {
                    "internalType": "address",
                    "name": "",
                    "type": "address"
                }
            ],
            "stateMutability": "view",
            "type": "function"
        },
        {
            "inputs": [
                {
                    "internalType": "string",
                    "name": "name",
                    "type": "string"
                },
                {
                    "internalType": "string",
                    "name": "symbol",
                    "type": "string"
                },
                {
                    "internalType": "uint256",
                    "name": "buyAmount",
                    "type": "uint256"
                },
                {
                    "internalType": "uint32",
                    "name": "sig",
                    "type": "uint32"
                },
                {
                    "internalType": "uint8",
                    "name": "poolType",
                    "type": "uint8"
                }
            ],
            "name": "createToken",
            "outputs": [
                {
                    "internalType": "address",
                    "name": "",
                    "type": "address"
                }
            ],
            "stateMutability": "payable",
            "type": "function"
        },
        {
            "inputs": [],
            "name": "distributorAddress",
            "outputs": [
                {
                    "internalType": "address",
                    "name": "",
                    "type": "address"
                }
            ],
            "stateMutability": "view",
            "type": "function"
        },
        {
            "inputs": [
                {
                    "internalType": "uint256",
                    "name": "amount",
                    "type": "uint256"
                }
            ],
            "name": "emergencyWithdrawETH",
            "outputs": [],
            "stateMutability": "nonpayable",
            "type": "function"
        },
        {
            "inputs": [
                {
                    "internalType": "address",
                    "name": "token",
                    "type": "address"
                },
                {
                    "internalType": "uint256",
                    "name": "amount",
                    "type": "uint256"
                }
            ],
            "name": "emergencyWithdrawTokens",
            "outputs": [],
            "stateMutability": "nonpayable",
            "type": "function"
        },
        {
            "inputs": [],
            "name": "feeAddress",
            "outputs": [
                {
                    "internalType": "address",
                    "name": "",
                    "type": "address"
                }
            ],
            "stateMutability": "view",
            "type": "function"
        },
        {
            "inputs": [],
            "name": "firstBuyFeeUSD",
            "outputs": [
                {
                    "internalType": "uint256",
                    "name": "",
                    "type": "uint256"
                }
            ],
            "stateMutability": "view",
            "type": "function"
        },
        {
            "inputs": [
                {
                    "internalType": "address",
                    "name": "user",
                    "type": "address"
                }
            ],
            "name": "getCreateTokenNonce",
            "outputs": [
                {
                    "internalType": "uint256",
                    "name": "",
                    "type": "uint256"
                }
            ],
            "stateMutability": "view",
            "type": "function"
        },
        {
            "inputs": [],
            "name": "getETHPriceByUSD",
            "outputs": [
                {
                    "internalType": "uint256",
                    "name": "",
                    "type": "uint256"
                }
            ],
            "stateMutability": "view",
            "type": "function"
        },
        {
            "inputs": [
                {
                    "internalType": "address",
                    "name": "token",
                    "type": "address"
                }
            ],
            "name": "getFirstBuyFee",
            "outputs": [
                {
                    "internalType": "uint256",
                    "name": "",
                    "type": "uint256"
                }
            ],
            "stateMutability": "view",
            "type": "function"
        },
        {
            "inputs": [
                {
                    "internalType": "address",
                    "name": "token",
                    "type": "address"
                }
            ],
            "name": "getLaunchProgress",
            "outputs": [
                {
                    "internalType": "uint256",
                    "name": "currentMarketCap",
                    "type": "uint256"
                },
                {
                    "internalType": "uint256",
                    "name": "targetMarketCap",
                    "type": "uint256"
                },
                {
                    "internalType": "uint256",
                    "name": "progressPercent",
                    "type": "uint256"
                },
                {
                    "internalType": "bool",
                    "name": "canLaunch",
                    "type": "bool"
                }
            ],
            "stateMutability": "view",
            "type": "function"
        },
        {
            "inputs": [
                {
                    "internalType": "address",
                    "name": "token",
                    "type": "address"
                }
            ],
            "name": "getPoolDetails",
            "outputs": [
                {
                    "internalType": "uint256",
                    "name": "ethReserve",
                    "type": "uint256"
                },
                {
                    "internalType": "uint256",
                    "name": "tokenReserve",
                    "type": "uint256"
                },
                {
                    "internalType": "uint256",
                    "name": "virtualEthReserve",
                    "type": "uint256"
                },
                {
                    "internalType": "uint256",
                    "name": "virtualTokenReserve",
                    "type": "uint256"
                },
                {
                    "internalType": "uint256",
                    "name": "currentK",
                    "type": "uint256"
                },
                {
                    "internalType": "uint256",
                    "name": "lastK",
                    "type": "uint256"
                },
                {
                    "internalType": "uint256",
                    "name": "virtualPrice",
                    "type": "uint256"
                },
                {
                    "internalType": "uint256",
                    "name": "actualPrice",
                    "type": "uint256"
                },
                {
                    "internalType": "bool",
                    "name": "launched",
                    "type": "bool"
                }
            ],
            "stateMutability": "view",
            "type": "function"
        },
        {
            "inputs": [
                {
                    "internalType": "address",
                    "name": "token",
                    "type": "address"
                }
            ],
            "name": "getPrice",
            "outputs": [
                {
                    "internalType": "uint256",
                    "name": "",
                    "type": "uint256"
                }
            ],
            "stateMutability": "view",
            "type": "function"
        },
        {
            "inputs": [
                {
                    "internalType": "address",
                    "name": "token",
                    "type": "address"
                },
                {
                    "internalType": "uint256",
                    "name": "amountIn",
                    "type": "uint256"
                },
                {
                    "internalType": "bool",
                    "name": "isETHInput",
                    "type": "bool"
                }
            ],
            "name": "getSwapOutput",
            "outputs": [
                {
                    "internalType": "uint256",
                    "name": "amountOut",
                    "type": "uint256"
                },
                {
                    "internalType": "uint256",
                    "name": "priceImpact",
                    "type": "uint256"
                }
            ],
            "stateMutability": "view",
            "type": "function"
        },
        {
            "inputs": [
                {
                    "internalType": "address",
                    "name": "token",
                    "type": "address"
                }
            ],
            "name": "getTokenMarketCap",
            "outputs": [
                {
                    "internalType": "uint256",
                    "name": "",
                    "type": "uint256"
                }
            ],
            "stateMutability": "view",
            "type": "function"
        },
        {
            "inputs": [
                {
                    "internalType": "address",
                    "name": "token",
                    "type": "address"
                }
            ],
            "name": "getTokenVirtualMarketCap",
            "outputs": [
                {
                    "internalType": "uint256",
                    "name": "",
                    "type": "uint256"
                }
            ],
            "stateMutability": "view",
            "type": "function"
        },
        {
            "inputs": [
                {
                    "internalType": "address",
                    "name": "token",
                    "type": "address"
                }
            ],
            "name": "getVirtualPrice",
            "outputs": [
                {
                    "internalType": "uint256",
                    "name": "",
                    "type": "uint256"
                }
            ],
            "stateMutability": "view",
            "type": "function"
        },
        {
            "inputs": [],
            "name": "initialEthLPAmount",
            "outputs": [
                {
                    "internalType": "uint256",
                    "name": "",
                    "type": "uint256"
                }
            ],
            "stateMutability": "view",
            "type": "function"
        },
        {
            "inputs": [],
            "name": "initialTokenLPAmount",
            "outputs": [
                {
                    "internalType": "uint256",
                    "name": "",
                    "type": "uint256"
                }
            ],
            "stateMutability": "view",
            "type": "function"
        },
        {
            "inputs": [],
            "name": "liquidityManager",
            "outputs": [
                {
                    "internalType": "contract IForgepadLiquidityManager",
                    "name": "",
                    "type": "address"
                }
            ],
            "stateMutability": "view",
            "type": "function"
        },
        {
            "inputs": [
                {
                    "internalType": "address",
                    "name": "from",
                    "type": "address"
                },
                {
                    "internalType": "address",
                    "name": "token",
                    "type": "address"
                },
                {
                    "internalType": "address[]",
                    "name": "holders",
                    "type": "address[]"
                }
            ],
            "name": "migrateFrom",
            "outputs": [],
            "stateMutability": "nonpayable",
            "type": "function"
        },
        {
            "inputs": [],
            "name": "owner",
            "outputs": [
                {
                    "internalType": "address",
                    "name": "",
                    "type": "address"
                }
            ],
            "stateMutability": "view",
            "type": "function"
        },
        {
            "inputs": [],
            "name": "pause",
            "outputs": [],
            "stateMutability": "nonpayable",
            "type": "function"
        },
        {
            "inputs": [],
            "name": "paused",
            "outputs": [
                {
                    "internalType": "bool",
                    "name": "",
                    "type": "bool"
                }
            ],
            "stateMutability": "view",
            "type": "function"
        },
        {
            "inputs": [],
            "name": "platformLPFee",
            "outputs": [
                {
                    "internalType": "uint256",
                    "name": "",
                    "type": "uint256"
                }
            ],
            "stateMutability": "view",
            "type": "function"
        },
        {
            "inputs": [],
            "name": "renounceOwnership",
            "outputs": [],
            "stateMutability": "nonpayable",
            "type": "function"
        },
        {
            "inputs": [
                {
                    "internalType": "uint256",
                    "name": "feeAmount",
                    "type": "uint256"
                }
            ],
            "name": "setCreateTokenFeeAmount",
            "outputs": [],
            "stateMutability": "nonpayable",
            "type": "function"
        },
        {
            "inputs": [
                {
                    "internalType": "address",
                    "name": "newDistributorAddress",
                    "type": "address"
                }
            ],
            "name": "setDistributorAddress",
            "outputs": [],
            "stateMutability": "nonpayable",
            "type": "function"
        },
        {
            "inputs": [
                {
                    "internalType": "address",
                    "name": "newFeeAddress",
                    "type": "address"
                }
            ],
            "name": "setFeeAddress",
            "outputs": [],
            "stateMutability": "nonpayable",
            "type": "function"
        },
        {
            "inputs": [
                {
                    "internalType": "uint256",
                    "name": "fee",
                    "type": "uint256"
                }
            ],
            "name": "setFirstBuyFee",
            "outputs": [],
            "stateMutability": "nonpayable",
            "type": "function"
        },
        {
            "inputs": [
                {
                    "internalType": "uint256",
                    "name": "amount",
                    "type": "uint256"
                }
            ],
            "name": "setInitialEthLPAmount",
            "outputs": [],
            "stateMutability": "nonpayable",
            "type": "function"
        },
        {
            "inputs": [
                {
                    "internalType": "uint256",
                    "name": "amount",
                    "type": "uint256"
                }
            ],
            "name": "setInitialTokenLPAmount",
            "outputs": [],
            "stateMutability": "nonpayable",
            "type": "function"
        },
        {
            "inputs": [
                {
                    "internalType": "address",
                    "name": "newLiquidityManagerAddress",
                    "type": "address"
                }
            ],
            "name": "setLiquidityManager",
            "outputs": [],
            "stateMutability": "nonpayable",
            "type": "function"
        },
        {
            "inputs": [
                {
                    "internalType": "uint256",
                    "name": "percent",
                    "type": "uint256"
                }
            ],
            "name": "setMaxBuyPercent",
            "outputs": [],
            "stateMutability": "nonpayable",
            "type": "function"
        },
        {
            "inputs": [
                {
                    "internalType": "uint256",
                    "name": "percent",
                    "type": "uint256"
                }
            ],
            "name": "setMaxSellPercent",
            "outputs": [],
            "stateMutability": "nonpayable",
            "type": "function"
        },
        {
            "inputs": [
                {
                    "internalType": "uint256",
                    "name": "percent",
                    "type": "uint256"
                }
            ],
            "name": "setPlatformBuyFeePercent",
            "outputs": [],
            "stateMutability": "nonpayable",
            "type": "function"
        },
        {
            "inputs": [
                {
                    "internalType": "uint256",
                    "name": "newPlatformFee",
                    "type": "uint256"
                }
            ],
            "name": "setPlatformLPFee",
            "outputs": [],
            "stateMutability": "nonpayable",
            "type": "function"
        },
        {
            "inputs": [
                {
                    "internalType": "uint256",
                    "name": "percent",
                    "type": "uint256"
                }
            ],
            "name": "setPlatformSellFeePercent",
            "outputs": [],
            "stateMutability": "nonpayable",
            "type": "function"
        },
        {
            "inputs": [
                {
                    "internalType": "uint256",
                    "name": "targetMarketCap",
                    "type": "uint256"
                }
            ],
            "name": "setTargetMarketCap",
            "outputs": [],
            "stateMutability": "nonpayable",
            "type": "function"
        },
        {
            "inputs": [
                {
                    "internalType": "uint256",
                    "name": "feePercent",
                    "type": "uint256"
                }
            ],
            "name": "setTokenOwnerFeePercent",
            "outputs": [],
            "stateMutability": "nonpayable",
            "type": "function"
        },
        {
            "inputs": [
                {
                    "internalType": "uint256",
                    "name": "fee",
                    "type": "uint256"
                }
            ],
            "name": "setTokenOwnerLPFee",
            "outputs": [],
            "stateMutability": "nonpayable",
            "type": "function"
        },
        {
            "inputs": [
                {
                    "internalType": "uint256",
                    "name": "totalSupply",
                    "type": "uint256"
                }
            ],
            "name": "setTotalSupply",
            "outputs": [],
            "stateMutability": "nonpayable",
            "type": "function"
        },
        {
            "inputs": [
                {
                    "internalType": "address",
                    "name": "token",
                    "type": "address"
                },
                {
                    "internalType": "uint256",
                    "name": "buyAmount",
                    "type": "uint256"
                },
                {
                    "internalType": "uint256",
                    "name": "maxAmountIn",
                    "type": "uint256"
                }
            ],
            "name": "swapETHForExactTokens",
            "outputs": [],
            "stateMutability": "payable",
            "type": "function"
        },
        {
            "inputs": [
                {
                    "internalType": "address",
                    "name": "token",
                    "type": "address"
                },
                {
                    "internalType": "uint256",
                    "name": "buyAmount",
                    "type": "uint256"
                },
                {
                    "internalType": "uint256",
                    "name": "minAmountOut",
                    "type": "uint256"
                }
            ],
            "name": "swapExactETHForTokens",
            "outputs": [],
            "stateMutability": "payable",
            "type": "function"
        },
        {
            "inputs": [
                {
                    "internalType": "address",
                    "name": "token",
                    "type": "address"
                },
                {
                    "internalType": "uint256",
                    "name": "sellAmount",
                    "type": "uint256"
                },
                {
                    "internalType": "uint256",
                    "name": "minAmountOut",
                    "type": "uint256"
                }
            ],
            "name": "swapExactTokensForETH",
            "outputs": [],
            "stateMutability": "nonpayable",
            "type": "function"
        },
        {
            "inputs": [],
            "name": "tokenCount",
            "outputs": [
                {
                    "internalType": "uint256",
                    "name": "",
                    "type": "uint256"
                }
            ],
            "stateMutability": "view",
            "type": "function"
        },
        {
            "inputs": [
                {
                    "internalType": "uint256",
                    "name": "",
                    "type": "uint256"
                }
            ],
            "name": "tokenList",
            "outputs": [
                {
                    "internalType": "address",
                    "name": "",
                    "type": "address"
                }
            ],
            "stateMutability": "view",
            "type": "function"
        },
        {
            "inputs": [],
            "name": "tokenOwnerLPFee",
            "outputs": [
                {
                    "internalType": "uint256",
                    "name": "",
                    "type": "uint256"
                }
            ],
            "stateMutability": "view",
            "type": "function"
        },
        {
            "inputs": [
                {
                    "internalType": "address",
                    "name": "",
                    "type": "address"
                }
            ],
            "name": "tokenPools",
            "outputs": [
                {
                    "internalType": "uint256",
                    "name": "ethReserve",
                    "type": "uint256"
                },
                {
                    "internalType": "uint256",
                    "name": "tokenReserve",
                    "type": "uint256"
                },
                {
                    "internalType": "uint256",
                    "name": "virtualEthReserve",
                    "type": "uint256"
                },
                {
                    "internalType": "uint256",
                    "name": "virtualTokenReserve",
                    "type": "uint256"
                },
                {
                    "internalType": "address",
                    "name": "token",
                    "type": "address"
                },
                {
                    "internalType": "address",
                    "name": "owner",
                    "type": "address"
                },
                {
                    "internalType": "uint8",
                    "name": "poolType",
                    "type": "uint8"
                },
                {
                    "internalType": "bool",
                    "name": "launched",
                    "type": "bool"
                },
                {
                    "internalType": "uint256",
                    "name": "lastKValue",
                    "type": "uint256"
                }
            ],
            "stateMutability": "view",
            "type": "function"
        },
        {
            "inputs": [
                {
                    "internalType": "address",
                    "name": "newOwner",
                    "type": "address"
                }
            ],
            "name": "transferOwnership",
            "outputs": [],
            "stateMutability": "nonpayable",
            "type": "function"
        },
        {
            "inputs": [],
            "name": "unpause",
            "outputs": [],
            "stateMutability": "nonpayable",
            "type": "function"
        },
        {
            "inputs": [
                {
                    "internalType": "address",
                    "name": "token",
                    "type": "address"
                },
                {
                    "internalType": "uint256",
                    "name": "ethReserve",
                    "type": "uint256"
                },
                {
                    "internalType": "uint256",
                    "name": "tokenReserve",
                    "type": "uint256"
                },
                {
                    "internalType": "uint256",
                    "name": "virtualEthReserve",
                    "type": "uint256"
                },
                {
                    "internalType": "uint256",
                    "name": "virtualTokenReserve",
                    "type": "uint256"
                },
                {
                    "internalType": "address",
                    "name": "owner",
                    "type": "address"
                },
                {
                    "internalType": "uint8",
                    "name": "poolType",
                    "type": "uint8"
                }
            ],
            "name": "updatePool",
            "outputs": [],
            "stateMutability": "nonpayable",
            "type": "function"
        },
        {
            "stateMutability": "payable",
            "type": "receive"
        }
    ],
    "bytecode": "60803461033157601f61521338819003918201601f19168301916001600160401b038311848410176103355780849260c0946040528339810103126103315761004781610349565b9061005460208201610349565b61006060408301610349565b9061006d60608401610349565b9060a060808501519401519460015f55331561031e576001546040519190336001600160a01b0382167f8be0079c531659141344cd1fd0a4f28419497f9722a3daafe3b4186f6b6457e05f80a36001600160a81b0319163360ff60a01b1916176001556001600160a01b03169081156102dc5750600380546001600160a01b0319169190911790556001600160a01b0316908115610298576001600160a01b0316801561024857600a80546001600160a01b0319908116929092179055600280549091169190911790556001600160a01b031680156102035760018060a01b031960095416176009556103e8600f555f600b555f600c55600d55670de0b6b3a7640000810290808204670de0b6b3a764000014901517156101ef57600e55600880546001600160a01b03191661dead179055674af0a763bb1c00006011556b0295be96e6406697200000006012555f60148190556103e86015556001601681905560175567016345785d8a0000601855601355604051614eb5908161035e8239f35b634e487b7160e01b5f52601160045260245ffd5b60405162461bcd60e51b815260206004820152601a60248201527f46656520616464726573732063616e6e6f74206265207a65726f0000000000006044820152606490fd5b60405162461bcd60e51b815260206004820152602260248201527f4469737472696275746f7220616464726573732063616e6e6f74206265207a65604482015261726f60f01b6064820152608490fd5b606460405162461bcd60e51b815260206004820152602060248201527f4c6971756964697479206d616e616765722063616e6e6f74206265207a65726f6044820152fd5b62461bcd60e51b815260206004820181905260248201527f44617461206665656420616464726573732063616e6e6f74206265207a65726f6044820152606490fd5b631e4fbdf760e01b5f525f60045260245ffd5b5f80fd5b634e487b7160e01b5f52604160045260245ffd5b51906001600160a01b03821682036103315756fe608080604052600436101561001c575b50361561001a575f80fd5b005b5f3560e01c9081620273cb14612d4c5750806308c2a49d14612d2057806308cad93614612d035780630da438a014612c8c578063112de31714612c6f578063125aeb1d14612c4e5780631ead8a4414612c2d57806321570ac014612c1057806321b77d6314612bef5780632332e7f014612bd25780632acafa0314612998578063338274381461297057806339dbc3df146128a05780633b4337ef146128835780633c1624d4146127f85780633d0457ea146127925780633f4ba83a1461272457806341275358146126fc57806341976e09146126d9578063513b181a146126a157806359992dbc1461263257806359f4bb3a146125c35780635c975abb1461259e5780635e49aa4314611f8957806366672c2514611f225780636839b5fa14611f065780636b792c4b14611e8857806370d5ae0514611e60578063715018a614611e0557806376f8131d14611de857806382c858a41461178d5780638456cb591461172c5780638705fcd4146116a057806387950f49146116095780638a977cee1461159a5780638d2abc12146112a85780638da5cb5b14611280578063902d55a514611263578063908235cc14611155578063917bb9981461100757806393b9555914610f985780639858cd5214610f7b5780639a7bfeee14610f5e5780639ead722214610f2c5780639f181b5e14610f0f578063a51af4c514610ee7578063a6c9d2ec14610ecd578063adace29214610eb0578063b3cd490214610e8d578063bc47605c14610e6a578063c038847a14610af7578063c327300a14610ad6578063c3d2c3c114610a32578063c441f50714610a15578063cec09db6146109e9578063d3e90fa014610943578063d42decac14610430578063d5b846de14610413578063e5424615146103f2578063f1be0eba146103c7578063f2fde38b146103415763f7ea7a3d146102d1575f61000f565b3461033d57602036600319011261033d576004356102ed61333b565b80156102f857600e55005b60405162461bcd60e51b815260206004820152601d60248201527f546f74616c20737570706c79206d75737420626520706f7369746976650000006044820152606490fd5b5f80fd5b3461033d57602036600319011261033d5761035a612d66565b61036261333b565b6001600160a01b031680156103b457600180546001600160a01b0319811683179091556001600160a01b03167f8be0079c531659141344cd1fd0a4f28419497f9722a3daafe3b4186f6b6457e05f80a3005b631e4fbdf760e01b5f525f60045260245ffd5b3461033d57602036600319011261033d5760206103ea6103e5612d66565b6132ef565b604051908152f35b3461033d57602036600319011261033d5761040b61333b565b600435601855005b3461033d575f36600319011261033d576020601854604051908152f35b61043936612e1d565b610441613477565b610449613495565b60018060a01b03831692835f52600560205261047e612710610475600260405f200154600f5490613407565b0484111561307b565b6104878161320a565b9361049d6104958685612f10565b341015612f1d565b805f5260056020526104bc60ff600560405f20015460a81c16156134b3565b831515936104c9856134ff565b815f52600560205260405f209460165495600c54916104e88389612f10565b976002830191825499600385019a6105018c54936137c1565b8015158061093a575b61051390613741565b61051e83891061380d565b6064820291808304606414901517156109265761054b8861055b926105466127108610613786565b613407565b6105558985612fcf565b90613422565b600181018091116109265761056f906133e3565b906127100361271081116109265761058691613422565b9889116108e9576111946105a28261059d896133e3565b612ea6565b116108a4576105b98666038d7ea4c6800092612fcf565b1061085f576105c89088613407565b60649004926105d79088613407565b6064900490816105e7858a612fcf565b906105f191612fcf565b60068401805460405163a9059cbb60e01b8152336004820152602481018990529b90939192909190898d6044815a6020945f91f19c8d15610854578e9d6107e0575b506106948795936107259c9b9997959361067e846106646106c5965f80516020614e608339815191529f9d54612f10565b8a5560018a016106758d8254612fcf565b90558254612f10565b80915561068c8a8354612fcf565b809255613407565b926106ac8d61059d6106a6888b612f10565b84613407565b808211156107d7576106bd91612fcf565b8310156135a3565b55806107b7575b505080610781575b5061071d6106e1856132ef565b916106ea6130d5565b936106f487613237565b905f52600660205260405f2061070a8154612fc1565b905560405194859442938b8a33896135e5565b0390a161392c565b61072f8282612f10565b341161075e575b50610742575b60015f55005b60095461075891906001600160a01b031661362c565b8061073c565b61077a9161076f6107749234612fcf565b612fcf565b3361362c565b8082610736565b6009546107b19160011c906107a09082906001600160a01b031661362c565b600a546001600160a01b031661362c565b886106d4565b6005909101546107d091906001600160a01b031661362c565b89806106cc565b5060011c6106bd565b909c5060209a9997959391989694929a813d60201161084c575b8161080760209383612d99565b8101031261033d576106946107259b8f9e9a61067e5f80516020614e608339815191529c6108376106c596612fb4565b50945050939597999b9c509395979950610633565b3d91506107fa565b6040513d5f823e3d90fd5b60405162461bcd60e51b815260206004820152601760248201527f42656c6f77206d696e696d756d206c69717569646974790000000000000000006044820152606490fd5b60405162461bcd60e51b815260206004820152601c60248201527f45786365656473206d6178696d756d20707269636520696d70616374000000006044820152606490fd5b60405162461bcd60e51b8152602060048201526015602482015274115e18d959591cc81b585e1a5b5d5b481a5b9c1d5d605a1b6044820152606490fd5b634e487b7160e01b5f52601160045260245ffd5b5082151561050a565b3461033d57602036600319011261033d5761012061095f612d66565b60018060a01b0381165f52600560205260405f2090815491600181015491600282015460038301546109918183613407565b9060068501549260ff60056109ae6109a8886132ef565b97612ec4565b97015460a81c1696604051988952602089015260408801526060870152608086015260a085015260c084015260e08301521515610100820152f35b3461033d57602036600319011261033d57600435610a0561333b565b610a10811515612e47565b601255005b3461033d575f36600319011261033d576020600b54604051908152f35b3461033d57602036600319011261033d576001600160a01b03610a53612d66565b165f52600560205261012060405f2080549060ff6001820154916002810154600382015460018060a01b03600484015416916006600585015494015495604051978852602088015260408701526060860152608085015260018060a01b03811660a0850152818160a01c1660c085015260a81c16151560e0830152610100820152f35b3461033d57602036600319011261033d57610aef61333b565b600435601355005b3461033d57610b0536612e1d565b91610b0e613477565b610b16613495565b60018060a01b03811690815f526005602052612710610b3f600360405f20015460155490613407565b048311610e2d57815f526005602052610b6560ff600560405f20015460a81c16156134b3565b8215610dda57815f52600560205260405f2060175490600c5491610b898382612f10565b9660038301918254610baf610ba6600287019b8c5480948d613859565b93841015613557565b611194610bbf8261059d866133e3565b116108a457610bd68366038d7ea4c6800092612fcf565b1061085f57610bf36064610beb819385613407565b049583613407565b0491610c038361076f8785612fcf565b9660068501915f602084549360648d60405194859384926323b872dd60e01b845233600485015230602485015260448401525af1801561085457610d51575b50610d03979695949392916106ac610cbb610cc9937f2262bb35756b9b0e5e2051bd6406dd0bb48c85e8c9e3ed186c0c949478df2e9d9e61068c8f8f610c88903361362c565b610c938a8d54612fcf565b8c5560018c01610ca4828254612f10565b9055610cb18a8454612fcf565b8093558354612f10565b9461059d6106a6888b612f10565b5580610d31575b505080610d0c575b50610ce2816132ef565b610cea6130d5565b610cf383613237565b91604051968796429533896135e5565b0390a160015f55005b600954610d2b9160011c906107a09082906001600160a01b031661362c565b85610cd8565b600590910154610d4a91906001600160a01b031661362c565b8680610cd0565b979695949392916020893d602011610dd2575b81610d7160209383612d99565b8101031261033d576106ac610cbb610cc9937f2262bb35756b9b0e5e2051bd6406dd0bb48c85e8c9e3ed186c0c949478df2e9d9e61068c8f8f610d039f90610dbb610c8892612fb4565b50505050509e509350505091929394959697610c42565b3d9150610d64565b60405162461bcd60e51b815260206004820152602560248201527f53656c6c20616d6f756e74206d7573742062652067726561746572207468616e604482015264207a65726f60d81b6064820152608490fd5b60405162461bcd60e51b815260206004820152601560248201527453656c6c20616d6f756e7420746f6f206c6172676560581b6044820152606490fd5b3461033d57602036600319011261033d5760206103ea610e88612d66565b613237565b3461033d57602036600319011261033d5760206103ea610eab612d66565b61320a565b3461033d575f36600319011261033d576020600f54604051908152f35b3461033d575f36600319011261033d5760206103ea6130d5565b3461033d575f36600319011261033d57600a546040516001600160a01b039091168152602090f35b3461033d575f36600319011261033d576020601054604051908152f35b3461033d57602036600319011261033d576004355f526004602052602060018060a01b0360405f205416604051908152f35b3461033d575f36600319011261033d576020601354604051908152f35b3461033d575f36600319011261033d576020601454604051908152f35b3461033d57602036600319011261033d57600435610fb461333b565b6101f48111610fc257601655005b60405162461bcd60e51b815260206004820152601860248201527f427579206665652063616e6e6f742065786365656420352500000000000000006044820152606490fd5b3461033d57604036600319011261033d57611020612d66565b6024359061102c61333b565b6040516370a0823160e01b81523060048201526001600160a01b039190911690602081602481855afa908115610854575f91611123575b5082116110de5760015460405163a9059cbb60e01b81526001600160a01b0390911660048201526024810192909252602090829060449082905f905af18015610854576110ac57005b6020813d6020116110d6575b816110c560209383612d99565b8101031261033d5761001a90612fb4565b3d91506110b8565b60405162461bcd60e51b815260206004820152601a60248201527f496e73756666696369656e7420746f6b656e2062616c616e63650000000000006044820152606490fd5b90506020813d60201161114d575b8161113e60209383612d99565b8101031261033d575183611063565b3d9150611131565b3461033d57606036600319011261033d5761116e612d66565b6024359060443590811515820361033d5760018060a01b03165f52600560205260405f209060ff600583015460a81c16611225576040928115611210576111ba601654600c5490612f10565b915b156111f1576111e5916111db9160036002860154950154948591613859565b9161059d836133e3565b82519182526020820152f35b61120b916111db9160026003860154950154948591613859565b6111e5565b61121f601754600c5490612f10565b916111bc565b60405162461bcd60e51b8152602060048201526016602482015275141bdbdb081a185cc81899595b881b185d5b98da195960521b6044820152606490fd5b3461033d575f36600319011261033d576020600e54604051908152f35b3461033d575f36600319011261033d576001546040516001600160a01b039091168152602090f35b6112b136612e1d565b6112b9613477565b6112c1613495565b60018060a01b03831691825f5260056020526112f66127106112ed600260405f200154600f5490613407565b0482111561307b565b6112ff8461320a565b9361130d6104958684612f10565b835f52600560205261132c60ff600560405f20015460a81c16156134b3565b6113378215156134ff565b835f52600560205260405f209360165493600c54956113568787612f10565b966002820196875461137c611373600386019b8c5480948c613859565b95861015613557565b61119461138c8261059d886133e3565b116108a4576113a38566038d7ea4c6800092612fcf565b1061085f576113c060646113b881938a613407565b049288613407565b04916113d08361076f848a612fcf565b60068201805460405163a9059cbb60e01b815233600482015260248101889052919b919a92959290919060208c6044815f8d5af19b8c15610854578e9c61150e575b5099809b9c61147686946106ac610cbb6107259f9661071d9b99975f80516020614e608339815191529f9e9d9b8e61146c8e6001846114558361068c9754612f10565b815501611463848254612fcf565b90558454612f10565b8093558354612fcf565b55806114ee575b5050806114c9575b5061148f866132ef565b936114986130d5565b6114a188613237565b915f52600660205260405f206114b78154612fc1565b905560405195869542948a33896135e5565b6009546114e89160011c906107a09082906001600160a01b031661362c565b8a611485565b60059091015461150791906001600160a01b031661362c565b8b8061147d565b909593919a9b506020989796949298813d602011611592575b8161153460209383612d99565b8101031261033d578d9c6114765f80516020614e608339815191529a6106ac8f946107259f61071d9b61068c8e61146c8e60018e611574610cbb99612fb4565b50505050505050965096989a505050949698999a50509c9b9a611412565b3d9150611527565b3461033d57602036600319011261033d576004356115b661333b565b6103e881116115c457600f55005b60405162461bcd60e51b815260206004820152601960248201527f4d6178206275792063616e6e6f742065786365656420313025000000000000006044820152606490fd5b3461033d57602036600319011261033d57611622612d66565b61162a61333b565b6001600160a01b03168015611650576001600160601b0360a01b600a541617600a555f80f35b60405162461bcd60e51b815260206004820152602260248201527f4469737472696275746f7220616464726573732063616e6e6f74206265207a65604482015261726f60f01b6064820152608490fd5b3461033d57602036600319011261033d576116b9612d66565b6116c161333b565b6001600160a01b031680156116e7576001600160601b0360a01b60095416176009555f80f35b60405162461bcd60e51b815260206004820152601a60248201527f46656520616464726573732063616e6e6f74206265207a65726f0000000000006044820152606490fd5b3461033d575f36600319011261033d5761174461333b565b61174c613477565b6001805460ff60a01b1916600160a01b1790556040513381527f62e78cea01bee320cd4e420270b5ea74000d11b0c9f74754ebdbfc544b05a25890602090a1005b3461033d57606036600319011261033d576117a6612d66565b6024356001600160a01b038116919082900361033d576044359067ffffffffffffffff821161033d573660238301121561033d5781600401359167ffffffffffffffff8311611c09578260051b90604051936118056020840186612d99565b8452602460208501928201019036821161033d57602401915b818310611dc85750505061183061333b565b60018060a01b0316805f52601960205260405f20835f5260205260ff60405f205416611d90578015611d54578215611d1757805f52601960205260405f20835f5260205260405f20600160ff198254161790556040519163c3d2c3c160e01b835283600484015261010083602481855afa928315610854575f93611c5b575b506040516306fdde0360e01b81525f81600481885afa908115610854575f91611c41575b506040516395d89b4160e01b8152905f82600481895afa918215610854575f92611c1d575b50600e549160405192610d52918285019385851067ffffffffffffffff861117611c0957859461192c9461410e8739612f86565b03905ff08015610854576001600160a01b0316915f5b8251811015611a81576001600160a01b0361195d8285613053565b511661196c575b600101611942565b6001600160a01b0361197e8285613053565b516040516370a0823160e01b815291166004820152906020826024818a5afa918215610854575f92611a4e575b50816119b9575b9050611964565b611a04916020906001600160a01b036119d28488613053565b5160405163a9059cbb60e01b815291166001600160a01b03166004820152602481019190915292839081906044820190565b03815f895af1801561085457156119b2576020823d8211611a46575b81611a2d60209383612d99565b8101031261033d57611a40600192612fb4565b506119b2565b3d9150611a20565b9091506020813d8211611a79575b81611a6960209383612d99565b8101031261033d575190876119ab565b3d9150611a5c565b83868382600689611ba860408201805190611b8d60ff611aa76060870194855190613407565b95805160208201519451955160018060a01b0360a0840151169660e08560c0860151169401511515966040519c8d94611adf86612d7c565b855260208086019283526040808701948552606087019586526080870183815260a08089019d8e5260c08901998a5260e089019c8d526101009098019e8f525f93845260059283905292209e518f55915160018f0155915160028e0155915160038d01555160048c0180546001600160a01b0319166001600160a01b039283161790559651908b01805493516001600160a81b0319909416919097161792909116901b60ff60a01b16178355565b51815460ff60a81b191690151560a81b60ff60a81b16179055565b51910155601080545f90815260046020526040902080546001600160a01b0319166001600160a01b03861617905554611be090612fc1565b6010557fe1b831b0e6f3aa16b4b1a6bd526b5cdeab4940744ca6e0251f5fe5f8caf1c81a5f80a4005b634e487b7160e01b5f52604160045260245ffd5b611c3a9192503d805f833e611c328183612d99565b810190612ff0565b90866118f8565b611c5591503d805f833e611c328183612d99565b856118d3565b909250610100813d8211611d0f575b81611c786101009383612d99565b8101031261033d5760405190610100820182811067ffffffffffffffff821117611c095760405280518252602081015160208301526040810151604083015260608101516060830152611ccd60808201612fdc565b6080830152611cde60a08201612fdc565b60a083015260c081015160ff8116810361033d5760c0830152611d039060e001612fb4565b60e082015291846118af565b3d9150611c6a565b60405162461bcd60e51b8152602060048201526015602482015274496e76616c696420746f6b656e206164647265737360581b6044820152606490fd5b60405162461bcd60e51b8152602060048201526014602482015273496e76616c69642066726f6d206164647265737360601b6044820152606490fd5b60405162461bcd60e51b815260206004820152601060248201526f105b1c9958591e481b5a59dc985d195960821b6044820152606490fd5b82356001600160a01b038116810361033d5781526020928301920161181e565b3461033d575f36600319011261033d576020601154604051908152f35b3461033d575f36600319011261033d57611e1d61333b565b600180546001600160a01b031981169091555f906001600160a01b03167f8be0079c531659141344cd1fd0a4f28419497f9722a3daafe3b4186f6b6457e08280a3005b3461033d575f36600319011261033d576008546040516001600160a01b039091168152602090f35b3461033d57602036600319011261033d57600435611ea461333b565b478111611ec15760015461001a91906001600160a01b031661362c565b60405162461bcd60e51b815260206004820152601d60248201527f496e73756666696369656e7420636f6e74726163742062616c616e63650000006044820152606490fd5b3461033d575f36600319011261033d5760206040516111948152f35b3461033d57602036600319011261033d576080611f3d612d66565b611f475f91613237565b611f52600d54613362565b9081611f74575b60405192818452826020850152604084015210156060820152f35b9150611f838161059d846133e3565b91611f59565b60a036600319011261033d5760043567ffffffffffffffff811161033d57611fb5903690600401612dd7565b60243567ffffffffffffffff811161033d57611fd5903690600401612dd7565b6044356064359163ffffffff831680930361033d5760843560ff811680910361033d57612000613477565b612008613495565b8215801592906125975761201a6131b2565b955b61203561049561202c8988612f10565b600b5490612f10565b600e549160405192610d52918285019385851067ffffffffffffffff861117611c095785946120689461410e8739612f86565b03905ff080156108545760405163095ea7b360e01b81523060048201525f1960248201526001600160a01b03919091169490916020836044815f8a5af1928315610854578493612532575b507f2a05a690a5ed5548b0f27fb409f1ef2c13c4e8b840027ca67eb743aa71b6383d9160a0916006601154916121d08a60125494611b8d60ff6120f68884613407565b95600e54604051998a9561210987612d7c565b5f875260208701928352604087019081526060870191825260808701928884528e880198338a5260c0890195865261010060e08a01995f8b52019b8c525f52600560205260405f209c518d555160018d01555160028c01555160038b01556001808d1b0390511660048a01906001808e1b03166001600160601b038d1b82541617905560058901946001808d1b03906001808e1b03905116166001600160601b038c1b8654161785555116839081549060ff60a01b9060a01b169060ff60a01b1916179055565b519101556010545f52600460205260405f20600180841b0388166001600160601b03841b825416179055612205601054612fc1565b601055612211876132ef565b9061221a6130d5565b60405192898452602084015260408301526060820152426080820152a16122c1575b50602092600b5461224d8282612f10565b61229c575b5061225d8183612f10565b61226a600b548092612f10565b3411612280575b50505060015f55604051908152f35b61076f6107749261076f6122949534612fcf565b828080612271565b6122bb906122b58360018060a01b036009541692612f10565b9061362c565b84612252565b6122e990835f5260056020526122e460ff600560405f20015460a81c16156134b3565b6134ff565b815f52600560205260405f209260165493600c546123078187612f10565b916002810180549761232160038401958654809b8a613859565b9861232c6001613557565b61119461233c8261059d8d6133e3565b116108a4576123538a66038d7ea4c6800092612fcf565b1061085f576064612371816123698c948b613407565b049589613407565b04916123818361076f878b612fcf565b60068501805460405163a9059cbb60e01b81523360048201526024810195909552919791939092906020818d815f816044810103925af18015610854576124cc575b509161241f61240d8795938a99979560209f995f80516020614e608339815191529c6123ef9154612f10565b8855600188016124008b8254612fcf565b905561067e8b8254612f10565b926106ac8c61059d6106a6888b612f10565b55806124ac575b505080612487575b5061247561243b876132ef565b926124446130d5565b61244d89613237565b90895f5260068b5260405f206124638154612fc1565b905560405195869542948c33896135e5565b0390a16124818361392c565b9261223c565b6009546124a69160011c906107a09082906001600160a01b031661362c565b8761242e565b6005909101546124c591906001600160a01b031661362c565b8880612426565b9b959391979694929060208d3d60201161252a575b816124ee60209383612d99565b8101031261033d5761240d5f80516020614e608339815191529961241f9260209f61251890612fb4565b50939597999a509395979d50506123c3565b3d91506124e1565b909192506020813d60201161258f575b8161254f60209383612d99565b8101031261033d5783927f2a05a690a5ed5548b0f27fb409f1ef2c13c4e8b840027ca67eb743aa71b6383d9261258660a093612fb4565b509150916120b3565b3d9150612542565b5f9561201c565b3461033d575f36600319011261033d57602060ff60015460a01c166040519015158152f35b3461033d57602036600319011261033d576004356125df61333b565b6101f481116125ed57601755005b60405162461bcd60e51b815260206004820152601960248201527f53656c6c206665652063616e6e6f7420657863656564203525000000000000006044820152606490fd5b3461033d57602036600319011261033d5760043561264e61333b565b6103e8811161265c57601555005b60405162461bcd60e51b815260206004820152601a60248201527f4d61782073656c6c2063616e6e6f7420657863656564203130250000000000006044820152606490fd5b3461033d57602036600319011261033d576001600160a01b036126c2612d66565b165f526007602052602060405f2054604051908152f35b3461033d57602036600319011261033d5760206103ea6126f7612d66565b612ec4565b3461033d575f36600319011261033d576009546040516001600160a01b039091168152602090f35b3461033d575f36600319011261033d5761273c61333b565b60015460ff8160a01c16156127835760ff60a01b19166001556040513381527f5db9ee0a495bf2e6ff9c91a7834c1ba4fdd244a5e8aa4e537bd38aeae4b073aa90602090a1005b638dfc202b60e01b5f5260045ffd5b3461033d57602036600319011261033d576004356127ae61333b565b6101f481116127bc57600c55005b60405162461bcd60e51b81526020600482015260146024820152734665652063616e6e6f742065786365656420352560601b6044820152606490fd5b3461033d57602036600319011261033d57612811612d66565b61281961333b565b6001600160a01b0316801561283f576001600160601b0360a01b60025416176002555f80f35b606460405162461bcd60e51b815260206004820152602060248201527f4c6971756964697479206d616e616765722063616e6e6f74206265207a65726f6044820152fd5b3461033d575f36600319011261033d576020601754604051908152f35b3461033d57602036600319011261033d576001600160a01b036128c1612d66565b6040516318160ddd60e01b81529116602082600481845afa918215610854575f9261293a575b6020670de0b6b3a76400006129318461291c61290a886129056130d5565b612e93565b825f526005865260405f205490612e93565b905f5260058452600160405f20015490612ea6565b04604051908152f35b91506020823d602011612968575b8161295560209383612d99565b8101031261033d579051906129316128e7565b3d9150612948565b3461033d575f36600319011261033d576002546040516001600160a01b039091168152602090f35b3461033d5760e036600319011261033d576129b1612d66565b6024359060a435906044359060843590606435906001600160a01b038516850361033d5760c4359060ff8216820361033d576129eb61333b565b6001600160a01b0316908115612b8d575f828152600560205260409020600401546001600160a01b0316829003612b485786151580612b3f575b15612afa5782151580612af1575b15612aa2575f91825260056020819052604090922096875560018701949094556002860182905560038601839055850180546001600160a81b0319166001600160a01b039095169490941760a09390931b60ff60a01b1692909217909255600691612a9d91613407565b910155005b60405162461bcd60e51b815260206004820152602160248201527f5669727475616c207265736572766573206d75737420626520706f73697469766044820152606560f81b6064820152608490fd5b50831515612a33565b60405162461bcd60e51b815260206004820152601960248201527f5265736572766573206d75737420626520706f736974697665000000000000006044820152606490fd5b50841515612a25565b60405162461bcd60e51b815260206004820152601960248201527f546f6b656e20706f6f6c20646f6573206e6f74206578697374000000000000006044820152606490fd5b60405162461bcd60e51b815260206004820152601c60248201527f546f6b656e20616464726573732063616e6e6f74206265207a65726f000000006044820152606490fd5b3461033d575f36600319011261033d576020600c54604051908152f35b3461033d575f36600319011261033d57602060405166038d7ea4c680008152f35b3461033d575f36600319011261033d576020601254604051908152f35b3461033d57602036600319011261033d57612c4661333b565b600435601455005b3461033d57602036600319011261033d57612c6761333b565b600435600b55005b3461033d575f36600319011261033d576020601654604051908152f35b3461033d57602036600319011261033d57600435612ca861333b565b8015612cb357600d55005b60405162461bcd60e51b815260206004820152602260248201527f546172676574206d61726b657420636170206d75737420626520706f73697469604482015261766560f01b6064820152608490fd5b3461033d575f36600319011261033d576020600d54604051908152f35b3461033d57602036600319011261033d57600435612d3c61333b565b612d47811515612e47565b601155005b3461033d575f36600319011261033d576020906015548152f35b600435906001600160a01b038216820361033d57565b610120810190811067ffffffffffffffff821117611c0957604052565b90601f8019910116810190811067ffffffffffffffff821117611c0957604052565b67ffffffffffffffff8111611c0957601f01601f191660200190565b81601f8201121561033d57803590612dee82612dbb565b92612dfc6040519485612d99565b8284526020838301011161033d57815f926020809301838601378301015290565b606090600319011261033d576004356001600160a01b038116810361033d57906024359060443590565b15612e4e57565b60405162461bcd60e51b815260206004820152601760248201527f416d6f756e74206d75737420626520706f7369746976650000000000000000006044820152606490fd5b8181029291811591840414171561092657565b8115612eb0570490565b634e487b7160e01b5f52601260045260245ffd5b6001600160a01b03165f908152600560205260409020600181015480158015612f07575b612f0157612ef9612efe9254613362565b613422565b90565b50505f90565b50815415612ee8565b9190820180921161092657565b15612f2457565b60405162461bcd60e51b8152602060048201526016602482015275496e73756666696369656e74204554482076616c756560501b6044820152606490fd5b805180835260209291819084018484015e5f828201840152601f01601f1916010190565b939291612faf90612fa1604093606088526060880190612f62565b908682036020880152612f62565b930152565b5190811515820361033d57565b5f1981146109265760010190565b9190820391821161092657565b51906001600160a01b038216820361033d57565b60208183031261033d5780519067ffffffffffffffff821161033d570181601f8201121561033d5780519061302482612dbb565b926130326040519485612d99565b8284526020838301011161033d57815f9260208093018386015e8301015290565b80518210156130675760209160051b010190565b634e487b7160e01b5f52603260045260245ffd5b1561308257565b60405162461bcd60e51b815260206004820152601460248201527342757920616d6f756e7420746f6f206c6172676560601b6044820152606490fd5b519069ffffffffffffffffffff8216820361033d57565b600354604051633fabe5a360e21b81529060a090829060049082906001600160a01b03165afa908115610854575f91613165575b505f811315613130576402540be4008102908082046402540be40014901517156109265790565b60405162461bcd60e51b815260206004820152600d60248201526c496e76616c696420707269636560981b6044820152606490fd5b905060a0813d60a0116131aa575b8161318060a09383612d99565b8101031261033d57613191816130be565b506131a36080602083015192016130be565b505f613109565b3d9150613173565b6014548015613205575f805260066020527f54cdd369e4e8a8515e52ca72ec816c2101831ad1f18bf44102ed171459c9b4f8546003116131f157505f90565b6131fd612efe91613362565b6105556130d5565b505f90565b601454908115612f01576001600160a01b03165f908152600660205260409020546003116131f157505f90565b6040516318160ddd60e01b81526001600160a01b039190911690602081600481855afa908115610854575f916132b5575b50670de0b6b3a76400009161329b6132856132b1936129056130d5565b825f526005602052600260405f20015490612e93565b905f526005602052600360405f20015490612ea6565b0490565b90506020813d6020116132e7575b816132d060209383612d99565b8101031261033d5751670de0b6b3a7640000613268565b3d91506132c3565b6001600160a01b03165f9081526005602052604090206002810154908115801561332f575b612f01576003613326612efe93613362565b91015490613422565b50600381015415613314565b6001546001600160a01b0316330361334f57565b63118cdaa760e01b5f523360045260245ffd5b801561320557670de0b6b3a7640000808202918083048214811517156109265761338c9083612ea6565b036133945790565b60405162461bcd60e51b815260206004820152602160248201527f536166654d6174683a206d756c7469706c69636174696f6e206f766572666c6f6044820152607760f81b6064820152608490fd5b801561320557612710808202918083048214811517156109265761338c9083612ea6565b908115612f015761338c61341b8284612e93565b9283612ea6565b90801561343257612efe91612ea6565b60405162461bcd60e51b815260206004820152601a60248201527f536166654d6174683a206469766973696f6e206279207a65726f0000000000006044820152606490fd5b60ff60015460a01c1661348657565b63d93c066560e01b5f5260045ffd5b60025f54146134a45760025f55565b633ee5aeb560e01b5f5260045ffd5b156134ba57565b60405162461bcd60e51b815260206004820152601e60248201527f506f6f6c20686173206265656e20616c7265616479206c61756e6368656400006044820152606490fd5b1561350657565b60405162461bcd60e51b8152602060048201526024808201527f42757920616d6f756e74206d7573742062652067726561746572207468616e206044820152637a65726f60e01b6064820152608490fd5b1561355e57565b60405162461bcd60e51b815260206004820152601760248201527f536c697070616765206c696d69742065786365656465640000000000000000006044820152606490fd5b156135aa57565b60405162461bcd60e51b815260206004820152601360248201527224b73b30b934b0b73a103b34b7b630ba34b7b760691b6044820152606490fd5b94919260e0969399989794919961010087019a60018060a01b0316875260018060a01b0316602087015260408601526060850152608084015260a083015260c08201520152565b6001600160a01b031680156136fc5781156136b8575f80809381935af13d156136b3573d61365981612dbb565b906136676040519283612d99565b81525f60203d92013e5b1561367857565b60405162461bcd60e51b8152602060048201526013602482015272115512081d1c985b9cd9995c8819985a5b1959606a1b6044820152606490fd5b613671565b606460405162461bcd60e51b815260206004820152602060248201527f416d6f756e74206d7573742062652067726561746572207468616e207a65726f6044820152fd5b60405162461bcd60e51b815260206004820152601f60248201527f43616e6e6f74207472616e7366657220746f207a65726f2061646472657373006044820152606490fd5b1561374857565b60405162461bcd60e51b8152602060048201526016602482015275496e73756666696369656e74206c697175696469747960501b6044820152606490fd5b1561378d57565b60405162461bcd60e51b815260206004820152600c60248201526b08ccaca40e8dede40d0d2ced60a31b6044820152606490fd5b156137c857565b60405162461bcd60e51b815260206004820152601a60248201527f496e73756666696369656e74206f757470757420616d6f756e740000000000006044820152606490fd5b1561381457565b60405162461bcd60e51b815260206004820152601b60248201527f4578636565647320617661696c61626c65206c697175696469747900000000006044820152606490fd5b91939282156138e757811515806138de575b61387490613741565b606481029080820460641490151715610926576138946127108210613786565b61271003906127108211610926576105556127106138b86138c9946138dc96613407565b046138c38782613407565b92612f10565b926138d58415156137c1565b831061380d565b565b5084151561386b565b60405162461bcd60e51b815260206004820152601960248201527f496e73756666696369656e7420696e70757420616d6f756e74000000000000006044820152606490fd5b6001600160a01b0381165f81815260056020526040812090919061394f84613237565b61395a600d54613362565b1115613967575b50505050565b613970846132ef565b156140bd57805490600181015461398c60135460185490612f10565b91839184819480821161408a575b505050843b1561033d576040516301339c2160e01b81525f81600481838a5af1801561085457614074575b5060050192600160a81b60ff60a81b198554161784558486526005602052604086206040516139f381612d7c565b8154815260018201546020820152600282015460408201526003820154606082015260018060a01b036004830154166080820152610100600660058401549360018060a01b03851660a085015260ff808660a01c16958660c087015260a81c16151560e08501520154910152600181145f14613e0d575060025460405163095ea7b360e01b81526001600160a01b039091166004820152602481018490526020816044818a8a5af18015613d8d57613dd6575b5060025460085460405163328722e760e01b81526001600160a01b038a811660048301526024820187905260448201869052918216606482015291602091839160849183918891165af1908115613d8d578791613d98575b50505b6040516318160ddd60e01b815292602084600481895afa938415613d8d578794613d58575b5060807f64b83944e79c3ce8d4c297411de637c3e102d064677aac0c163976ebdcd6f50e91613b6c956040519189835286602084015260408301526060820152a1612fcf565b6040516370a0823160e01b8152306004820152602081602481875afa908115613d1b578591613d26575b5080613c73575b5091613c319391837fed5e8fa4fbafe6fe50ebd87a8a1b16d95d60b84b42c29583fc30980df8ae3c6c9694613c3d575b505080825260056020528160016040822001558082526005602052816040812055808252600560205281600260408220015581526005602052600360408220015560405191829142908360209093929193604081019460018060a01b031681520152565b0390a15f808080613961565b9054613c6c9160011c90613c5b9082906001600160a01b031661362c565b6009546001600160a01b031661362c565b5f80613bcd565b60085460405163a9059cbb60e01b81526001600160a01b039091166004820152602481019190915260208160448188885af18015613d1b5715613b9d576020813d602011613d13575b81613cc960209383612d99565b81010312613d0f57917fed5e8fa4fbafe6fe50ebd87a8a1b16d95d60b84b42c29583fc30980df8ae3c6c959391613d03613c319694612fb4565b50919395509193613b9d565b8480fd5b3d9150613cbc565b6040513d87823e3d90fd5b90506020813d602011613d50575b81613d4160209383612d99565b8101031261033d57515f613b96565b3d9150613d34565b93506020843d602011613d85575b81613d7360209383612d99565b8101031261033d579251926080613b26565b3d9150613d66565b6040513d89823e3d90fd5b90506020813d602011613dce575b81613db360209383612d99565b81010312613dca57613dc490612fdc565b5f613afe565b8680fd5b3d9150613da6565b6020813d602011613e05575b81613def60209383612d99565b81010312613dca57613e0090612fb4565b613aa6565b3d9150613de2565b60028103613f33575060025460405163095ea7b360e01b81526001600160a01b039091166004820152602481018490526020816044818a8a5af18015613d8d57613efc575b50600254600854604051639e70ed8160e01b81526001600160a01b038a811660048301526024820187905260448201869052918216606482015291608091839160849183918891165af18015613d8d57613ead575b50613b01565b6080813d608011613ef4575b81613ec660809383612d99565b81010312613dca57602001516fffffffffffffffffffffffffffffffff811603613ef0575f613ea7565b8580fd5b3d9150613eb9565b6020813d602011613f2b575b81613f1560209383612d99565b81010312613dca57613f2690612fb4565b613e52565b3d9150613f08565b6003036140375760025460405163095ea7b360e01b81526001600160a01b039091166004820152602481018490526020816044818a8a5af18015613d8d57614000575b506002546008546001600160a01b039081169116803b15613ffc576040516325f1763d60e11b81526001600160a01b038a81166004830152602482018790526044820186905292909216606483015287908290608490829087905af18015613d8d57908791613fe7575b5050613b01565b81613ff191612d99565b613ef057855f613fe0565b8780fd5b6020813d60201161402f575b8161401960209383612d99565b81010312613dca5761402a90612fb4565b613f76565b3d915061400c565b60405162461bcd60e51b8152602060048201526015602482015274556e737570706f7274656420706f6f6c207479706560581b6044820152606490fd5b6140819196505f90612d99565b5f9460056139c5565b8161409792939550612fcf565b92816140a5575b819061399a565b6140b592945083612ef991613407565b91835f61409e565b60405162461bcd60e51b815260206004820152602260248201527f546f6b656e207072696365206d7573742062652067726561746572207468616e604482015261020360f41b6064820152608490fdfe6080604052346103d757610d5280380380610019816103db565b9283398101906060818303126103d75780516001600160401b0381116103d75782610045918301610400565b60208201519092906001600160401b0381116103d757604091610069918401610400565b91015182516001600160401b0381116102e857600354600181811c911680156103cd575b60208210146102ca57601f811161036a575b506020601f821160011461030757819293945f926102fc575b50508160011b915f199060031b1c1916176003555b81516001600160401b0381116102e857600454600181811c911680156102de575b60208210146102ca57601f8111610267575b50602092601f821160011461020657928192935f926101fb575b50508160011b915f199060031b1c1916176004555b33156101e85760058054336001600160a01b0319821681179092556001600160a01b03167f8be0079c531659141344cd1fd0a4f28419497f9722a3daafe3b4186f6b6457e05f80a36002548181018091116101d457600255335f525f60205260405f208181540190556040519081525f7fddf252ad1be2c89b69c2b068fc378daa952ba7f163c4a11628f55a4df523b3ef60203393a360405161090090816104528239f35b634e487b7160e01b5f52601160045260245ffd5b631e4fbdf760e01b5f525f60045260245ffd5b015190505f8061011a565b601f1982169360045f52805f20915f5b86811061024f5750836001959610610237575b505050811b0160045561012f565b01515f1960f88460031b161c191690555f8080610229565b91926020600181928685015181550194019201610216565b60045f527f8a35acfbc15ff81a39ae7d344fd709f28e8600b4aa8c65c6b64bfe7fe36bd19b601f830160051c810191602084106102c0575b601f0160051c01905b8181106102b55750610100565b5f81556001016102a8565b909150819061029f565b634e487b7160e01b5f52602260045260245ffd5b90607f16906100ee565b634e487b7160e01b5f52604160045260245ffd5b015190505f806100b8565b601f1982169060035f52805f20915f5b8181106103525750958360019596971061033a575b505050811b016003556100cd565b01515f1960f88460031b161c191690555f808061032c565b9192602060018192868b015181550194019201610317565b60035f527fc2575a0e9e593c00f959f8c92f12db2869c3395a3b0502d05e2516446f71f85b601f830160051c810191602084106103c3575b601f0160051c01905b8181106103b8575061009f565b5f81556001016103ab565b90915081906103a2565b90607f169061008d565b5f80fd5b6040519190601f01601f191682016001600160401b038111838210176102e857604052565b81601f820112156103d7578051906001600160401b0382116102e85761042f601f8301601f19166020016103db565b92828452602083830101116103d757815f9260208093018386015e830101529056fe60806040526004361015610011575f80fd5b5f3560e01c806301339c211461060957806306fdde0314610537578063095ea7b3146104b557806318160ddd1461049857806323b872dd146103ac578063313ce5671461039157806370a082311461035a578063715018a6146103385780638091f3bf146103135780638da5cb5b146102eb57806395d89b41146101d0578063a9059cbb1461018d578063dd62ed3e1461013d5763f2fde38b146100b3575f80fd5b34610139576020366003190112610139576100cc6106b6565b6100d4610754565b6001600160a01b0316801561012657600580546001600160a01b0319811683179091556001600160a01b03167f8be0079c531659141344cd1fd0a4f28419497f9722a3daafe3b4186f6b6457e05f80a3005b631e4fbdf760e01b5f525f60045260245ffd5b5f80fd5b34610139576040366003190112610139576101566106b6565b61015e6106cc565b6001600160a01b039182165f908152600160209081526040808320949093168252928352819020549051908152f35b34610139576040366003190112610139576101c56101a96106b6565b6101bb6101b6823361077b565b6106e2565b602435903361080d565b602060405160018152f35b34610139575f366003190112610139576040515f6004548060011c906001811680156102e1575b6020831081146102cd578285529081156102b1575060011461025c575b50819003601f01601f191681019067ffffffffffffffff821181831017610248576102448291826040528261068c565b0390f35b634e487b7160e01b5f52604160045260245ffd5b905060045f527f8a35acfbc15ff81a39ae7d344fd709f28e8600b4aa8c65c6b64bfe7fe36bd19b5f905b82821061029b57506020915082010182610214565b6001816020925483858801015201910190610286565b90506020925060ff191682840152151560051b82010182610214565b634e487b7160e01b5f52602260045260245ffd5b91607f16916101f7565b34610139575f366003190112610139576005546040516001600160a01b039091168152602090f35b34610139575f36600319011261013957602060ff60055460a01c166040519015158152f35b34610139575f36600319011261013957610350610754565b6103586107ca565b005b34610139576020366003190112610139576001600160a01b0361037b6106b6565b165f525f602052602060405f2054604051908152f35b34610139575f36600319011261013957602060405160128152f35b34610139576060366003190112610139576103c56106b6565b6103cd6106cc565b604435906103de6101b6828561077b565b6001600160a01b0383165f81815260016020818152604080842033855290915290912054919491908101610418575b506101c5935061080d565b83811061047d57841561046a573315610457576101c5945f52600160205260405f2060018060a01b0333165f526020528360405f20910390558461040d565b634a1406b160e11b5f525f60045260245ffd5b63e602df0560e01b5f525f60045260245ffd5b8390637dc7a0d960e11b5f523360045260245260445260645ffd5b34610139575f366003190112610139576020600254604051908152f35b34610139576040366003190112610139576104ce6106b6565b60243590331561046a576001600160a01b031690811561045757335f52600160205260405f20825f526020528060405f20556040519081527f8c5be1e5ebec7d5bd14f71427d1e84f3dd0314c0f7b2291e5b200ac8c7c3b92560203392a3602060405160018152f35b34610139575f366003190112610139576040515f6003548060011c906001811680156105ff575b6020831081146102cd578285529081156102b157506001146105aa5750819003601f01601f191681019067ffffffffffffffff821181831017610248576102448291826040528261068c565b905060035f527fc2575a0e9e593c00f959f8c92f12db2869c3395a3b0502d05e2516446f71f85b5f905b8282106105e957506020915082010182610214565b60018160209254838588010152019101906105d4565b91607f169161055e565b34610139575f36600319011261013957610621610754565b60055460ff8160a01c166106475760ff60a01b1916600160a01b17600555610350610754565b60405162461bcd60e51b815260206004820152601960248201527f636f6e747261637420616c7265616479206c61756e63686564000000000000006044820152606490fd5b602060409281835280519182918282860152018484015e5f828201840152601f01601f1916010190565b600435906001600160a01b038216820361013957565b602435906001600160a01b038216820361013957565b156106e957565b60405162461bcd60e51b815260206004820152603d60248201527f5468697320746f6b656e206973206e6f74206c61756e6368656420616e64206360448201527f616e6e6f74206265206c6973746564206f6e206465786573207965742e0000006064820152608490fd5b6005546001600160a01b0316330361076857565b63118cdaa760e01b5f523360045260245ffd5b60055460ff8160a01c166107c2576001600160a01b03908116911681149182156107af575b50506107aa575f90565b600190565b6001600160a01b03161490505f806107a0565b505050600190565b600580546001600160a01b031981169091555f906001600160a01b03167f8be0079c531659141344cd1fd0a4f28419497f9722a3daafe3b4186f6b6457e08280a3565b6001600160a01b03169081156108b7576001600160a01b03169182156108a457815f525f60205260405f205481811061088b57817fddf252ad1be2c89b69c2b068fc378daa952ba7f163c4a11628f55a4df523b3ef92602092855f525f84520360405f2055845f525f825260405f20818154019055604051908152a3565b8263391434e360e21b5f5260045260245260445260645ffd5b63ec442f0560e01b5f525f60045260245ffd5b634b637e8f60e11b5f525f60045260245ffdfea2646970667358221220ab72a502f1a1356c054c4d25cad9e57a8c24d8724fb64a1243d0c0d52509b61e64736f6c634300081a0033fbfaba99a90d60bdecbb7bccbe1c886679822831c4b9cc90ebce3023add494daa26469706673582212208651e37fb12a7e1ff84a968dd0064176d3e1d8762d0d59eb4fb27e27c52cdd6e64736f6c634300081a0033",
    "sourcePath": "/Users/typhon/dev/forgepad.finance/contracts/contracts/Forgepad.sol",
    "compiler": {
        "name": "solc",
        "version": "0.8.26+commit.8a97fa7a"
    },
    "functionHashes": {
        "CREATE_TOKEN_FEE_AMOUNT()": "c441f507",
        "MAX_BUY_PERCENT()": "adace292",
        "MAX_PRICE_IMPACT()": "6839b5fa",
        "MAX_SELL_PERCENT()": "000273cb",
        "MIN_LIQUIDITY()": "21b77d63",
        "PLATFORM_BUY_FEE_PERCENT()": "112de317",
        "PLATFORM_SELL_FEE_PERCENT()": "3b4337ef",
        "TARGET_MARKET_CAP()": "08cad936",
        "TOKEN_OWNER_FEE_PERCENT()": "2332e7f0",
        "TOTAL_SUPPLY()": "902d55a5",
        "burnAddress()": "70d5ae05",
        "createToken(string,string,uint256,uint32,uint8)": "5e49aa43",
        "distributorAddress()": "a51af4c5",
        "emergencyWithdrawETH(uint256)": "6b792c4b",
        "emergencyWithdrawTokens(address,uint256)": "917bb998",
        "feeAddress()": "41275358",
        "firstBuyFeeUSD()": "9858cd52",
        "getCreateTokenNonce(address)": "513b181a",
        "getETHPriceByUSD()": "a6c9d2ec",
        "getFirstBuyFee(address)": "b3cd4902",
        "getLaunchProgress(address)": "66672c25",
        "getPoolDetails(address)": "d3e90fa0",
        "getPrice(address)": "41976e09",
        "getSwapOutput(address,uint256,bool)": "908235cc",
        "getTokenMarketCap(address)": "39dbc3df",
        "getTokenVirtualMarketCap(address)": "bc47605c",
        "getVirtualPrice(address)": "f1be0eba",
        "initialEthLPAmount()": "76f8131d",
        "initialTokenLPAmount()": "21570ac0",
        "liquidityManager()": "33827438",
        "migrateFrom(address,address,address[])": "82c858a4",
        "owner()": "8da5cb5b",
        "pause()": "8456cb59",
        "paused()": "5c975abb",
        "platformLPFee()": "d5b846de",
        "renounceOwnership()": "715018a6",
        "setCreateTokenFeeAmount(uint256)": "125aeb1d",
        "setDistributorAddress(address)": "87950f49",
        "setFeeAddress(address)": "8705fcd4",
        "setFirstBuyFee(uint256)": "1ead8a44",
        "setInitialEthLPAmount(uint256)": "08c2a49d",
        "setInitialTokenLPAmount(uint256)": "cec09db6",
        "setLiquidityManager(address)": "3c1624d4",
        "setMaxBuyPercent(uint256)": "8a977cee",
        "setMaxSellPercent(uint256)": "59992dbc",
        "setPlatformBuyFeePercent(uint256)": "93b95559",
        "setPlatformLPFee(uint256)": "e5424615",
        "setPlatformSellFeePercent(uint256)": "59f4bb3a",
        "setTargetMarketCap(uint256)": "0da438a0",
        "setTokenOwnerFeePercent(uint256)": "3d0457ea",
        "setTokenOwnerLPFee(uint256)": "c327300a",
        "setTotalSupply(uint256)": "f7ea7a3d",
        "swapETHForExactTokens(address,uint256,uint256)": "d42decac",
        "swapExactETHForTokens(address,uint256,uint256)": "8d2abc12",
        "swapExactTokensForETH(address,uint256,uint256)": "c038847a",
        "tokenCount()": "9f181b5e",
        "tokenList(uint256)": "9ead7222",
        "tokenOwnerLPFee()": "9a7bfeee",
        "tokenPools(address)": "c3d2c3c1",
        "transferOwnership(address)": "f2fde38b",
        "unpause()": "3f4ba83a",
        "updatePool(address,uint256,uint256,uint256,uint256,address,uint8)": "2acafa03"
    },
    "gasEstimates": {
        "creation": {
            "codeDepositCost": "4029800",
            "executionCost": "infinite",
            "totalCost": "infinite"
        },
        "external": {
            "CREATE_TOKEN_FEE_AMOUNT()": "3422",
            "MAX_BUY_PERCENT()": "3290",
            "MAX_PRICE_IMPACT()": "703",
            "MAX_SELL_PERCENT()": "2248",
            "MIN_LIQUIDITY()": "329",
            "PLATFORM_BUY_FEE_PERCENT()": "2344",
            "PLATFORM_SELL_FEE_PERCENT()": "2542",
            "TARGET_MARKET_CAP()": "2300",
            "TOKEN_OWNER_FEE_PERCENT()": "2454",
            "TOTAL_SUPPLY()": "3070",
            "burnAddress()": "2874",
            "createToken(string,string,uint256,uint32,uint8)": "infinite",
            "distributorAddress()": "3270",
            "emergencyWithdrawETH(uint256)": "infinite",
            "emergencyWithdrawTokens(address,uint256)": "infinite",
            "feeAddress()": "2654",
            "firstBuyFeeUSD()": "3158",
            "getCreateTokenNonce(address)": "2824",
            "getETHPriceByUSD()": "infinite",
            "getFirstBuyFee(address)": "infinite",
            "getLaunchProgress(address)": "infinite",
            "getPoolDetails(address)": "infinite",
            "getPrice(address)": "infinite",
            "getSwapOutput(address,uint256,bool)": "infinite",
            "getTokenMarketCap(address)": "infinite",
            "getTokenVirtualMarketCap(address)": "infinite",
            "getVirtualPrice(address)": "infinite",
            "initialEthLPAmount()": "2894",
            "initialTokenLPAmount()": "2410",
            "liquidityManager()": "2522",
            "migrateFrom(address,address,address[])": "infinite",
            "owner()": "3072",
            "pause()": "30400",
            "paused()": "2758",
            "platformLPFee()": "3510",
            "renounceOwnership()": "28676",
            "setCreateTokenFeeAmount(uint256)": "24512",
            "setDistributorAddress(address)": "27367",
            "setFeeAddress(address)": "27345",
            "setFirstBuyFee(uint256)": "24534",
            "setInitialEthLPAmount(uint256)": "24473",
            "setInitialTokenLPAmount(uint256)": "25639",
            "setLiquidityManager(address)": "26949",
            "setMaxBuyPercent(uint256)": "25172",
            "setMaxSellPercent(uint256)": "24864",
            "setPlatformBuyFeePercent(uint256)": "25304",
            "setPlatformLPFee(uint256)": "25678",
            "setPlatformSellFeePercent(uint256)": "24886",
            "setTargetMarketCap(uint256)": "24487",
            "setTokenOwnerFeePercent(uint256)": "24754",
            "setTokenOwnerLPFee(uint256)": "25524",
            "setTotalSupply(uint256)": "25760",
            "swapETHForExactTokens(address,uint256,uint256)": "infinite",
            "swapExactETHForTokens(address,uint256,uint256)": "infinite",
            "swapExactTokensForETH(address,uint256,uint256)": "infinite",
            "tokenCount()": "3224",
            "tokenList(uint256)": "3285",
            "tokenOwnerLPFee()": "3180",
            "tokenPools(address)": "16411",
            "transferOwnership(address)": "29491",
            "unpause()": "27934",
            "updatePool(address,uint256,uint256,uint256,uint256,address,uint8)": "140257"
        },
        "internal": {
            "_addLiquidity(address,uint256,uint256)": "infinite",
            "_checkAndAddLiquidity(address)": "infinite",
            "_swapETHForExactTokens(address,uint256,uint256)": "infinite",
            "_swapExactETHForTokens(address,uint256,uint256)": "infinite",
            "_swapExactTokensForETH(address,uint256,uint256)": "infinite",
            "_transferETH(address,uint256)": "infinite",
            "checkPriceImpact(uint256,uint256,uint256,uint256)": "infinite",
            "getAmountIn(uint256,uint256,uint256,uint256)": "infinite",
            "getAmountOut(uint256,uint256,uint256,uint256)": "infinite",
            "safeDiv(uint256,uint256)": "infinite",
            "safeMul(uint256,uint256)": "infinite"
        }
    }
}